:100000000C945F000C94F4190C941B1A0C94870048
:100010000C9487000C9487000C9487000C94870044
:100020000C9487000C9487000C9487000C94D221C8
:100030000C9487000C9487000C9487000C94870024
:100040000C94AF180C9487000C94701B0C94A21B9A
:100050000C9487000C9487000C9487000C94870004
:100060000C9487000C948700000000080002010037
:100070000003040700000000000000000102040863
:100080001020408001020408102001020408102002
:10009000040404040404040402020202020203032E
:1000A0000303030300000000250028002B000000CC
:1000B0000000240027002A009618C81B9E1811244F
:1000C0001FBECFEFD8E0DEBFCDBF13E0A0E0B1E0B0
:1000D000E2EEFFE402C005900D92AE3AB107D9F707
:1000E00024E0AEEAB3E001C01D92AB3CB207E1F7F9
:1000F00010E0CEE5D0E004C02197FE010E94372336
:10010000CC35D107C9F70E9482180C94E4270C94CF
:10011000CE2100002F923F924F925F926F927F927A
:100120008F929F92AF92BF92CF92DF92EF92FF9207
:100130000F931F93CF93DF93E42FF52F41905080BF
:100140004F925F92E42FF52F4DB65EB641925082EA
:100150000C94AA00E62FF72F419050804DBE5EBE52
:100160005F904F90E62FF72F41925082DF91CF9111
:100170001F910F91FF90EF90DF90CF90BF90AF90C5
:100180009F908F907F906F905F904F903F902F90B7
:100190000C946F1DE62FF72F419150814DBF5EBF2C
:1001A0000C94781D2F923F924F925F926F927F92A4
:1001B0008F929F92AF92BF92CF92DF92EF92FF9277
:1001C0000F931F93CF93DF93E42FF52F419050802F
:1001D0004F925F92E42FF52F4DB65EB6419250825A
:1001E0000C94CA00E82FF92F419150814DBF5EBF9A
:1001F000E62FF72F09940000FA01E20FF11D60834A
:100200007183828393830895FC01E60FF11D2081A1
:100210003181628170E090E080E0CB017727662732
:10022000732B622B2381922B0895883111F158F49E
:10023000803171F18431C1F08C3081F469E070E07B
:1002400080E090E008958033C9F08034E1F080329E
:1002500029F46DE070E080E090E008958F70682FE1
:1002600070E090E080E008956BE070E080E090E066
:1002700008956CE070E080E090E008956EE070E03A
:1002800080E090E008956FE070E080E090E00895F5
:100290006AE070E080E090E00895CF93DF93EC0196
:1002A0004E815F8188E4849F9001859F300D1124E9
:1002B000E881F981E20FF31FDB0101900D928A952D
:1002C000E1F78A859B85AC85BD850197A109B109B8
:1002D0008A879B87AC87BD878E819F81A885B985DA
:1002E0000196A11DB11D8E839F83A887B9874A817E
:1002F0005B816C817D8184179507A607B70721F480
:100300001E821F8218861986DF91CF910895FC0105
:1003100020812EBD9B012150310941F051810DB446
:1003200007FEFDCF4EB55EBD4193F5CF615071091B
:10033000860F971F0DB407FEFDCF2EB5FC0120835D
:100340000895FC011082118212821382148283E0CC
:10035000858316821782DF011896E85BFF4F1D9296
:10036000AE17BF07E1F708956F927F928F929F9229
:10037000AF92BF92CF92DF92EF92FF920F931F93B3
:10038000CF93DF93EC014A015B018881998100974B
:1003900011F00E94FB1B640188EC881681E098062E
:1003A000D0F428E4289DC001299D900D11240E94BD
:1003B000F71B3C018C01F12CE12C8FEFE81AF80AB5
:1003C000C6018E199F0997FD09C0C8010E94A101AD
:1003D000085B1F4FF2CF8FEF9FEFE9CF68827982E2
:1003E0008A829B82AC82BD821E821F8218861986F9
:1003F0001A861B861C861D861E861F86188A198AE9
:10040000DF91CF911F910F91FF90EF90DF90CF90F0
:10041000BF90AF909F908F907F906F900895CF92F4
:10042000DF92EF92FF920F931F93CF93DF93EC0134
:10043000FB014A855B856C857D850A811B812C814A
:100440003D8181E0401751076207730708F080E0A3
:10045000401751076207730708F041C0CE80DF8064
:10046000E884F9844C0D5D1D6E1D7F1D40175107FA
:100470006207730720F0401B510B620B730B98E46B
:10048000949F9001959F300D1124A881B981A20FEE
:10049000B31F01900D929A95E1F74A855B856C85B3
:1004A0007D854F5F5F4F6F4F7F4F4A875B876C87BC
:1004B0007D870E851F85288939890417150726072A
:1004C000370720F44E875F87688B798BDF91CF9158
:1004D0001F910F91FF90EF90DF90CF9008950F5FE5
:1004E0001F4F2F4F3F4F0E871F87288B398BEECF23
:1004F0002091C403222381F03FB7F8942091C403D4
:10050000213069F42DB32093C2034DB32091C3036E
:10051000209524232DBB3FBF8CBD9DBD08953093F6
:10052000C203FACF0CB405FC0DC09EBD00000DB493
:1005300007FEFDCF9EB58EBD00000DB407FEFDCFBA
:100540008EB508958EBD00000DB407FEFDCF8EB5AB
:100550009EBD00000DB407FEFDCF9EB508958091AD
:10056000C403882361F09FB7F8942091C40380915D
:10057000C203213019F48DBB9FBF08958FBF08952A
:10058000DC01D596ED91FC91D6979081D7968C9110
:100590008095892380830895DC01D596ED91FC91A7
:1005A000D6979081D7968C91892B80830895FC01F2
:1005B0001182108280E5828313825583448366838F
:1005C00027831086118681E082871386148615861C
:1005D00016861786108A128A118A138A148A158A37
:1005E000168A178A108E118E128E138E148E158E07
:1005F000168E178E10A211A212A214A213A215A277
:1006000016A217A210A611A612A613A614A615A626
:1006100016A617A610AA11AA12AA13AA14AA089518
:100620000F931F93CF938C01FC01828193810E94D1
:100630007802F894C1E0F801838D948DA58DB68D74
:10064000892B8A2B8B2B09F4C0E078940E94AF028F
:100650008C2FCF911F910F9108950F931F93CF93DC
:10066000DF9300D000D000D0CDB7DEB78C01FB0106
:10067000CA01B9011B821C821D821E829F013F702C
:10068000306239832A8322E0AE014F5F5F4F0E94C0
:10069000FC00C8010E94C00266E070E0CE01019635
:1006A0000E948701C8010E94CC0226960FB6F894DA
:1006B000DEBF0FBECDBFDF91CF911F910F91089587
:1006C0000F931F93CF93DF9300D01F92CDB7DEB768
:1006D0008C017F70706279836A834B830E94C002B1
:1006E00063E070E0CE0101960E948701C8010E947C
:1006F000CC020F900F900F90DF91CF911F910F912F
:1007000008950F931F93CF93DF9300D000D000D0B4
:10071000CDB7DEB78C011B821C821D821E827F70CA
:10072000706379836A830E94C00266E070E0CE0144
:1007300001960E948701C8010E94CC0262E0CE01AE
:1007400001960E94040126960FB6F894DEBF0FBEF4
:10075000CDBFDF91CF911F910F9108952F923F92BE
:100760004F925F926F927F928F929F92AF92BF92C1
:10077000CF92DF92EF92FF920F931F93CF93DF936D
:10078000CDB7DEB7CE54D1090FB6F894DEBF0FBE99
:10079000CDBF5C018B0160E770E00E9481031B010B
:1007A0002CEF321AD8014D905D906D907C9013978C
:1007B00014969C909920E1F0D301C20132E1B695E4
:1007C000A795979587953A95D1F79770AA27BB2754
:1007D0004BE0440C551C661C771C4A95D1F7442409
:1007E000E8EF5E22EFE17E22482A592A6A2A7B2A14
:1007F000D80117968C90882D0E9415016B017C0101
:10080000992011F06894C4F8F8018581823009F4C8
:1008100062C0833009F45AC0811102C06894C5F8DF
:10082000912CE3E08E0E911C959487949594879477
:10083000C401092C000CAA0BBB0B2F968CAF9DAFEB
:10084000AEAFBFAF2F97FE01339688E4DF011D9254
:100850008A95E9F7BFE03B22689435F839822A820D
:1008600022E0AE014F5F5F4FC301B2010E94FC0066
:1008700026E0AE014F5F5F4FC701B6010E94FC004A
:10088000085F1F4F2AE0F22E412C512C32012F9687
:100890008CAD9DADAEADBFAD2F97481659066A061B
:1008A0007B06F8F4D8016D917D918D919D918D011C
:1008B0002F2DAE014F5F5F4F0E94FC00BFEF4B1A20
:1008C0005B0A6B0A7B0AE4E0FE0EE1CFD5011B96C2
:1008D0008C91811103C06894C7F8A2CFB0ECCB2AE9
:1008E0009FCFC5010E94C002B401660F771F660F3B
:1008F000771F665F7F4FCE0101960E948701C50179
:100900000E94CC0243E069E670E0C5010E946003EA
:10091000C25BDF4F0FB6F894DEBF0FBECDBFDF91D5
:10092000CF911F910F91FF90EF90DF90CF90BF90EC
:10093000AF909F908F907F906F905F904F903F907F
:100940002F9008950F931F93CF93DF93CDB7DEB70A
:10095000C854D1090FB6F894DEBF0FBECDBF8C01CD
:10096000CE0101960E94A101F80185A596A5A7A533
:10097000B0A9892B8A2B8B2BC9F0BE016F5F7F4FEB
:10098000C80183960E944D01BE016F5F7F4FC80171
:100990000E94AE03C85BDF4F0FB6F894DEBF0FBEF8
:1009A000CDBFDF91CF911F910F91089540E968E687
:1009B00070E0C8010E946003F8011186EBCF0F932D
:1009C0001F93CF93DF9300D000D0CDB7DEB78C015B
:1009D0001C821B827F70706379836A830E94C002CD
:1009E00064E070E0CE0101960E948701C8010E9478
:1009F000CC028B819C810F900F900F900F90DF9114
:100A0000CF911F910F9108950F931F93CF93DF9371
:100A100000D01F92CDB7DEB78C011B827F70706350
:100A200079836A830E94C00263E070E0CE01019680
:100A30000E948701C8010E94CC028B810F900F9009
:100A40000F90DF91CF911F910F910895CF93DF9376
:100A5000FC012185222329F08396DF91CF910C940C
:100A60000F02EC010E94AE036CE670E0CE010E9422
:100A7000040580FD08C041E968E670E0CE010E94EF
:100A8000600381E0898781E0DF91CF9108953F92F3
:100A90004F925F926F927F928F929F92AF92BF928E
:100AA000CF92DF92EF92FF920F931F93CF93DF933A
:100AB000CDB7DEB7C055D1090FB6F894DEBF0FBE73
:100AC000CDBFDC0118963C9031101BC0312C832D1A
:100AD000C05BDF4F0FB6F894DEBF0FBECDBFDF9116
:100AE000CF911F910F91FF90EF90DF90CF90BF902B
:100AF000AF909F908F907F906F905F904F903F90BE
:100B000008955B018C0164E570E00E94040584FF98
:100B1000A8C04FEE64E570E0C8010E94600368E57C
:100B200070E0C8010E948103FB01FC5F2D96FFAFBE
:100B3000EEAF2D97D5014D905D906D907C90139701
:100B400014969C909920E1F0D301C20132E1B69550
:100B5000A795979587953A95D1F79770AA27BB27C0
:100B60004BE0440C551C661C771C4A95D1F7442475
:100B7000E8EF5E22EFE17E22482A592A6A2A7B2A80
:100B8000D50117968C90882D0E9415016B017C0170
:100B9000992011F06894C4F8F5018581823009F438
:100BA00068C0833009F460C0811102C06894C5F840
:100BB000912CE3E08E0E911C9594879495948794E4
:100BC000C401092C000CAA0BBB0B61968CAF9DAF26
:100BD000AEAFBFAF6197FE01339688E4DF011D928F
:100BE0008A95E9F72D966EAD7FAD2D977F70706277
:100BF00079836A8322E0AE014F5F5F4FC301B20188
:100C00000E94FC0026E0AE014F5F5F4FC701B601B6
:100C10000E94FC00B8E0AB0EB11C2AE0722EC12C81
:100C2000D12C760161968CAD9DADAEADBFAD619717
:100C3000C816D906EA06FB0610F5D5016D917D911F
:100C40008D919D915D01272DAE014F5F5F4F0E94F9
:100C5000FC00BFEFCB1ADB0AEB0AFB0AE4E07E0ED6
:100C6000E1CF80FF33CF5BCFD8011B968C918111F0
:100C700003C06894C7F89CCFB0ECCB2A99CFC801C9
:100C80000E94C002B401660F771F660F771F665F70
:100C90007F4FCE0101960E948701C8010E94CC02BD
:100CA00043E061E570E0C8010E94600310CF0F933C
:100CB0001F93CF93DF93EB012F813D81323020F4DE
:100CC000293090F0C0E027C0293070F02C3061F05E
:100CD000322F3B7F303141F0283131F0322F3F7ECF
:100CE000303211F0203471F78C01FC018281938144
:100CF0000E947802F8948E81811113C09F81F801BF
:100D000084858917E0F0BE01C8010E942605C82F1E
:100D100078940E94AF028C2FDF91CF911F910F9199
:100D200008958F3F51F49F81F8018585891738F028
:100D3000BE01C8010E944705EACFC1E0E9CFC0E08B
:100D4000E7CF2F923F924F925F926F927F928F9256
:100D50009F92AF92BF92CF92DF92EF92FF920F934A
:100D60001F93CF93DF93CDB7DEB7C359D1090FB629
:100D7000F894DEBF0FBECDBF3C0164E670E00E9478
:100D800081036B01CE01855B9F4F0E94A101FE0193
:100D9000339688E4DF011D928A95E9F7BCEFDB1AF0
:100DA000EFE0DE22F0E3DF2AD982CA82C3010E948B
:100DB000C0026AE470E0CE0101960E94870162E001
:100DC000CE0101960E9404012F966CAF7DAF8EAFCD
:100DD0009FAF2F9766E0CE0101960E9404014B0160
:100DE0005C01DC01CB018F709927AA27BB278D57A7
:100DF0009E4FDC01CC906396CFAE6397D12CB3E0CD
:100E0000CB0ED11CD594C794D594C7940D2C000C4F
:100E1000EE08FF080BE410E00C0F1D1F085F1F4FCA
:100E2000EAE0CD56DF4FE883C359D040212C312C66
:100E300021012C143D044E045F0400F5CD56DF4F14
:100E40006881C359D040CE0101960E940401D801A7
:100E50006D937D938D939D938D01BFEF2B1A3B0A6C
:100E60004B0A5B0ACD56DF4FE881C359D040EC5F97
:100E7000CD56DF4FE883C359D040DBCFC3010E947A
:100E8000CC0241E06DE570E0C3010E946003D50132
:100E9000C4014BE0B695A795979587954A95D1F7EC
:100EA0008F7162968FAF629785FE7DC061961FAE8F
:100EB000619781E0B501A401407155276627772726
:100EC00084FE80E060968FAF6097452B462B472BC2
:100ED00031F12F968CAD9DADAEADBFAD2F97AC016E
:100EE000BD012BE076956795579547952A95D1F7E3
:100EF0006370772732E1880F991FAA1FBB1F3A95AD
:100F0000D1F788279927AC7FBF71842B952BA62B0F
:100F1000B72B2F968CAF9DAFAEAFBFAF2F97BE0153
:100F2000655B7F4FC30141960E940F02D301539628
:100F30004D915D916D917C9156975B968D919D91B0
:100F40000D90BC91A02D481759076A077B0789F4BB
:100F5000F301128687818F3F61F06EE170E0C3017B
:100F60000E940405482F4D7F6EE170E0C3010E948E
:100F70006003CD56DF4F0FB6F894DEBF0FBECDBF76
:100F8000DF91CF911F910F91FF90EF90DF90CF9065
:100F9000BF90AF909F908F907F906F905F904F9099
:100FA0003F902F90089581E087FE03C082E086FC89
:100FB00083E061968FAF61977CCFEF92FF921F9392
:100FC000CF93DF93EC018A819B810E9478026CE1D0
:100FD00070E0CE010E94DF047C011A85112329F004
:100FE00081FF10C0CE010E94A106F2FE0DC04FEE9F
:100FF0006CE670E0CE010E946003CE010E94A20464
:1010000011E004C010E0F1CFE0FCF7CFE2FE07C032
:101010004BEF6CE170E0CE010E94600311E0E3FE53
:1010200007C047EF6CE170E0CE010E94600311E061
:10103000F4FE07C04FEE6DE170E0CE010E94600348
:1010400011E0F3FC09C01111C2CFDF91CF911F91C4
:10105000FF90EF900C94AF0288898F3F11F08F5F63
:10106000888B47EF60E670E0CE010E946003AFCF4F
:101070000C94DD07EF92FF921F93CF93DF93EC0167
:101080007B018A819B810E947802F8948B8D9C8DD4
:10109000AD8DBE8D11E00097A105B10509F410E0FA
:1010A000892B8A2B8B2B29F0B701CE0141960E9408
:1010B0004D018F818F3F79F481E08A87CE010E94B4
:1010C000DD0778940E94AF02812FDF91CF911F91AD
:1010D000FF90EF9008958A858111F3CF81E08A8790
:1010E0006EE170E0CE010E940405482F42606EE17F
:1010F00070E0CE010E946003E4CFFF920F931F9334
:10110000CF93DF93EC018B01F42E8A819B810E94A7
:101110007802F8944F2DB801CE010E9460037894B4
:10112000DF91CF911F910F91FF900C94AF020F931D
:101130001F93CF93DF93EC018B018A819B810E94E7
:101140007802F894B801CE010E940405C82F789463
:101150000E94AF028C2FDF91CF911F910F910895C4
:10116000CF92DF92EF92FF920F931F93CF93DF9373
:10117000EC018B0169017A018A819B810E947802CE
:10118000F894A7019601B801CE010E942D0378942E
:10119000DF91CF911F910F91FF90EF90DF90CF9053
:1011A0000C94AF02CF92DF92EF92FF92CF93DF9336
:1011B000EC017B018A819B810E947802F894B7013F
:1011C000CE010E9481036B017C0178940E94AF02E2
:1011D000C701B601DF91CF91FF90EF90DF90CF90E4
:1011E0000895CF93DF93EC018A819B810E9478025E
:1011F000F894CE010E94C00290E080E00E9492022A
:10120000CE010E94CC027894DF91CF910C94AF0272
:101210002F923F924F925F926F927F928F929F9206
:10122000AF92BF92CF92DF92EF92FF920F931F93F4
:10123000CF93DF9300D01F92CDB7DEB79B838A8315
:101240008B012A013901DB0153968C9154E0C52EA4
:10125000D12CE12CF12C882319F0C12CD12C760152
:10126000C8010E947211672B682B692B11F06894DA
:10127000C3F8EA81FB818781823009F4F2C18330AF
:1012800009F0E5C1E1E0E983EDC16894E3F8FFEF1F
:10129000F983EDC1813208F4FEC16894D1F8FBC135
:1012A000813208F4FEC16894D3F8FBC1C114D104A3
:1012B000E104F10409F01BC2AA81BB8117968C914D
:1012C0008F3F19F062E00E946919EA81FB818681F3
:1012D000282F30E0F901E057FF4FE491F0E0EE0FE6
:1012E000FF1FEC55FF4F45915491AA81BB81D696C3
:1012F0005C934E93D597F901E458FF4FE491D7964C
:10130000EC9361E00E94691982E5EA81FB818283A6
:1013100081E083830E94F9184B015C014CE063E09B
:1013200070E08A819B810E947D0862E070E08A8182
:101330009B810E94970890E025E0959587952A95D6
:10134000E1F7843079F00E94F918681979098A095F
:101350009B09633071058105910500F3C12CD12CE7
:101360007601C3948A819B810E94F108A0E22A2E13
:10137000312C812C912C54018394C114D104E104AB
:10138000F10409F0B4C1A501940160E074E08A8120
:101390009B810E94B00860E074E08A819B810E947A
:1013A000D208681579058A059B0529F0F2E0CF2E51
:1013B000D12CE12CF12C880C991CAA1CBB1CF1E04F
:1013C0002F1A3108D1F6C114D104E104F10409F057
:1013D0008EC1D8018C91815040E0B12C873048F407
:1013E00090E0FC01E458FE4FB0808B589E4FFC010A
:1013F00040814B29D80158968C91843029F0B0E275
:101400008B9FC0011124482B60E07EE08A819B8184
:101410000E947D08BB2009F46AC10E94F9184B01A3
:101420005C0161E07EE08A819B810E949708282E02
:101430002094E22DE1702E2E80FD11C00E94F9183B
:10144000681979098A099B0963307105810591053D
:1014500030F0C12CD12C72E0E72EF12C48C12110C4
:10146000E0CF45C120E030E040E052E0FCC143E085
:101470006EE170E08A819B810E947D0844E06FE10B
:1014800070E08A819B810E947D08D8011D968D9015
:101490009C90B1E08B1A9108B12CA12CBA2CA92CEC
:1014A000982C8824F801878590890197B0E0A0E006
:1014B000882A992AAA2ABB2ABA2CA92C982C8824D3
:1014C00081898150990B092E000CAA0BBB0B9C0142
:1014D000AD01282939294A295B29542F432F322F5E
:1014E000222782898150990B092E000CAA0BBB0B75
:1014F000282B392B4A2B5B2B64E070E08A819B817F
:101500000E94B008D80119968C9191E0813009F4BD
:1015100090E0EA81FB819387813009F43FC0D801D4
:101520001D968D909C90B1E08B1A9108B12CA12C46
:10153000BA2CA92C982C8824F80182858150990B0B
:10154000092E000CAA0BBB0B882A992AAA2ABB2AAF
:10155000BA2CA92C982C882483858150990B092EAC
:10156000000CAA0BBB0B9C01AD01282939294A2983
:101570005B29542F432F322F222784858150990BCA
:10158000092E000CAA0BBB0B282B392B4A2B5B2BEB
:1015900068E070E08A819B810E94B008D80159966A
:1015A0004C91EA81FB81478763E070E0CF010E94A4
:1015B0007D080E94F9184B015C0162E070E08A81AD
:1015C0009B810E949708829586958770D8015996CD
:1015D0009C91891779F00E94F918681979098A098C
:1015E0009B096B3071058105910538F3C12CD12C15
:1015F0007601E394EA81FB8187818F3F49F050E0D7
:1016000040E0B20189810E94D41989810E9464144A
:10161000AA81BB8119961C92199750961C92C701FA
:10162000B6010F900F900F90DF91CF911F910F9106
:10163000FF90EF90DF90CF90BF90AF909F908F90F2
:101640007F906F905F904F903F902F9008958F3FC5
:1016500009F0E9C14114510409F017CEBFEFB98375
:1016600006C019824114510411F46894C5F8D801D8
:1016700090968C91813210F06894D7F8F80182A18D
:10168000803210F06894D5F8D80197968C9181112A
:1016900001CE6894D0F8F801848D811101CE689450
:1016A000D2F8D8015E968C91803210F06894D6F80A
:1016B000C8010E94F711613078408105910510F052
:1016C0006894D4F8F3018081813210F06894C7F8EF
:1016D000D30115968D919C91892B11F06894C6F8D1
:1016E000F8018489805C87FFE1CD6894E4F8D80133
:1016F00011966D917D918D919C911497660F771F36
:10170000881F991F25E030E040E050E00E940A2247
:10171000812C62E1962E6AE7A62EB12C80E0281576
:1017200039054A055B0540F4B694A79497948794CD
:101730008F5F8630A1F787E0982F906A9695EA81AF
:10174000FB819283809581708383A0E22A2E312CC5
:10175000812C912C54018394C114D104E104F1042F
:1017600009F05DCFA501940160E074E08A819B815E
:101770000E94B00860E074E08A819B810E94D208D8
:10178000681579058A059B0529F0C12CD12CF4E058
:10179000EF2EF12C880C991CAA1CBB1CF1E02F1A0F
:1017A0003108D1F6C114D104E104F10409F037CFB6
:1017B000D8015A964D915C9170E060E08A819B81DE
:1017C00083960E94B401F80144A155A170E060E045
:1017D0008A819B8141960E94B401A12C74E0B72EAE
:1017E00020E030E0A901B5018A819B810E94B00808
:1017F000F4E0AF0EB11CA1142CE0B20689F7D801B9
:1018000058968C9143E2843009F043E0F8018589D1
:1018100081114061D80156968C918111406467E036
:101820007EE08A819B810E947D08F801878940E6DD
:10183000811101C040E470E060E08A819B810E94D8
:101840007D08D80154962C91222309F40BCE2F77D2
:10185000022E000C330B440B550B542F432F322F09
:101860002227426052606CE070E08A819B810E9476
:10187000B008F80143A14295440F407E82A1482B55
:1018800062E570E08A819B810E947D08D801909674
:101890008C9191E0811101C090E0EA81FB819087F9
:1018A000D80191964C91B0E24B9FA0011124815038
:1018B000482B63E570E0CF010E947D08F80181A10B
:1018C0000E942912AA81BB811D966C931D971896C0
:1018D0008C9140E0811140E1416062E070E08A81DA
:1018E0009B810E947D08F80146A1F0E24F9FC00154
:1018F0001124D80197964C914150482B6FE570E028
:101900008A819B810E947D0849E06CE570E08A81B4
:101910009B810E947D08F80186A10E942912AA815C
:10192000BB811E966C931E97F801478D4295440F1C
:10193000407E868D482B6AE670E0CD010E947D08CE
:10194000D8015D964C91B0E24B9FC0011124F80183
:10195000448D4150482B6BE670E08A819B810E9448
:101960007D0840E968E670E08A819B810E947D08DD
:10197000D8015D968C910E942912EA81FB816487CF
:10198000D3011196AD90BC9012978C9190E0880F86
:10199000991F0E94F71BEA81FB8191838083212C90
:1019A000A114B10409F463CDD5011A964D915C914F
:1019B000822C912C9401220F331FEA81FB818081BC
:1019C0009181820F931FDC014D935C93340193E06E
:1019D000660C771C9A95E1F7F501228133814481E9
:1019E0005581B3016C507E4F8A819B810E94B00863
:1019F000D50116962D913D914D915C911997B301AA
:101A000060517E4F8A819B810E94B008B40160536F
:101A10007E4F41E88A819B810E947D08F501A0806C
:101A2000B1802394BDCFFFEFF98380E1C82ED12C84
:101A3000E12CF12C17CECF92DF92EF92FF920F9311
:101A40001F93CF93DF93CDB7DEB728970FB6F894E7
:101A5000DEBF0FBECDBF8C017B016A0119821B82E4
:101A60001A821D821C821F821E8218868CE090E0E2
:101A70000E94F51BFC0111821082128213821482D3
:101A800015821682178210861186138612868A8125
:101A90009B81892BE9F4FB83EA83FD83EC838981B5
:101AA0008F5F89839E012F5F3F4FA601B701C80159
:101AB0000E9408096B017C018A819B81009769F073
:101AC000FC01008111810E94F91B1B830A83F4CF62
:101AD000AC81BD81ED93FC93E0CFC701B6012896A0
:101AE0000FB6F894DEBF0FBECDBFDF91CF911F912F
:101AF0000F91FF90EF90DF90CF9008952F923F923B
:101B00004F925F926F927F928F929F92AF92BF920D
:101B1000CF92DF92EF92FF920F931F93CF93DF93B9
:101B2000CDB7DEB7AA970FB6F894DEBF0FBECDBF14
:101B30009AA789A7298B3A8B4B8B5C8BC9A2DAA217
:101B4000EBA2FCA2DC016C93C12C2AE5D22E22E68A
:101B5000E22E22E0F22E683050F4B4E06B9FF001E8
:101B60001124ED56FE4FC080D180E280F380C982FF
:101B7000DA82EB82FC82C980DA80EB80FC80A9A546
:101B8000BAA51196CD92DD92ED92FC921497C98878
:101B9000DA88EB88FC881596CD92DD92ED92FC9266
:101BA000189719960C9319971A961C921A971B96C8
:101BB0001C921B971C961C921C971E961C921E92A0
:101BC0001D9750961C921E921F9751961C925197EA
:101BD00052961C92529753961C92539754961C926D
:101BE000549755961C92559756961C92569781E09D
:101BF00057968C93579793E058969C93589759967D
:101C00001C92599720E130E05B963C932E935A97B3
:101C10005C968C935C9787E05D968C935D975E965F
:101C20001C925E9792E05F969C935F9790961C92B1
:101C3000909791968C9391972FE192962C939297EF
:101C400093969C93939720E230E095963C932E9345
:101C5000949796968C9396978BE197968C930130F8
:101C600009F085C169817A818B819C81A7019601E8
:101C70000E940A222D8B3E8B4F8B588F832E942EE1
:101C8000A52EBB24FE2CED2CDC2CCC24CD86DE86B0
:101C9000EF86F88AB4E04B2E512C612C712C10E0A9
:101CA000212C312CCC24CA94DC2C7601C986DA860E
:101CB000EB86FC86C12CD12C7601D39472E8871672
:101CC00071E09706A104B10408F096C0C114D104D4
:101CD000E104F10409F490C0D501C4010497A109FD
:101CE000B1098E379140A105B10548F5A7019601CC
:101CF000C501B4010E94FA219B01AC0169897A896E
:101D00008B899C890E94FA2129813A814B815C81CF
:101D1000261B370B480B590BDA01C90149855A8537
:101D20006B857C85481759076A077B0740F02401BB
:101D300035018601170189879A87AB87BC87D50152
:101D4000C4010397A109B1098E379140A105B105DE
:101D500040F56FEF861A960AA60AB60AA501940105
:101D60006D857E858F8598890E94FA21DC01CB01E3
:101D700029813A814B815C81821B930BA40BB50BAB
:101D800049855A856B857C85481759076A077B0703
:101D900040F0240135018601170189879A87AB87B6
:101DA000BC8751E0C51AD108E108F108E2E88E2E9F
:101DB00099249394A12CB12CC114D104E104F10411
:101DC00051F06D897E898F89988DA70196010E94B7
:101DD0000A2249015A012D853E854F855889698916
:101DE0007A898B899C89261B370B480B590B2D87C9
:101DF0003E874F87588B62CFC301B20125E030E0A8
:101E000040E050E00E940A222115310541055105AC
:101E100021F421E030E040E050E07301620161E034
:101E2000C61AD108E108F108C21AD30AE40AF50A71
:101E300071E0C716D706E104F10458F031504109AA
:101E400051092C0D3D1D4E1D5F1DC12CD12C76015D
:101E5000D394A9A5BAA51E961C930E931D975096D0
:101E6000DC92CE921F9751962C93519752962C93B9
:101E70009801A101C301B2010E94FA219B01AC01AA
:101E800069897A898B899C890E94FA212B013C01FE
:101E9000C980DA80EB80FC804C145D046E047F0402
:101EA00008F0DDC1D701C60184199509A609B70953
:101EB0007C018D0120E030E0A9018983FA82AB83A7
:101EC0001C832D833E834F83588780E4A82E92E4A1
:101ED000B92E2FE0C22ED12CE12CF12C00E010E025
:101EE00029813A814B815C816D817E818F819885CA
:101EF0000E94742279018A011B014C01C301B201C5
:101F000029A13AA14BA15CA10E94CC2259016A01EE
:101F1000762EB72FA82FF92FE1E09701A801B10184
:101F2000C401E72CFB2E0A2F1F2F0E942E2311F035
:101F300008F0E0E0A9A5BAA55396EC93AA960FB6CF
:101F4000F894DEBF0FBECDBFDF91CF911F910F91EF
:101F5000FF90EF90DF90CF90BF90AF909F908F90C9
:101F60007F906F905F904F903F902F900895C02E7C
:101F7000D12CF12CE12CCD8EDE8EEF8EF8A2A701B4
:101F8000960169897A898B899C890E94FA216D87DB
:101F90007E878F87988B69817A818B819C812D8543
:101FA0003E854F8558890E940A222DA33EA34FA348
:101FB00058A769017A0132E0F694E794D794C79460
:101FC0003A95D1F70D851E852F85388942E0000F9F
:101FD000111F221F331F4A95D1F7098F1A8F2B8F9C
:101FE0003C8F54E0852E912CA12CB12C60E3462E21
:101FF000512C612C712C00E011E020E030E00987C9
:102000001A872B873C870FEF1FEF98010D8B1E8BD4
:102010002F8B388FC114D104E104F10409F488C076
:1020200011E0C116D106E104F10458F5A5019401AF
:10203000C701B6010E94FA219B01AC016D857E8526
:102040008F8598890E94FA2109811A812B813C8110
:10205000061B170B280B390BD901C8010D891E89E6
:102060002F89388D081719072A073B0750F02401DC
:102070003501C986DA86EB86FC868D8B9E8BAF8B0D
:10208000B88F1FEFC116D104E104F10409F050F537
:102090002FEFC21AD20AE20AF20AA7019601698D4D
:1020A0007A8D8B8D9C8D0E94FA21DC01CB010981F8
:1020B0001A812B813C81801B910BA20BB30B0D89E4
:1020C0001E892F89388D081719072A073B0750F0FA
:1020D00024013501C986DA86EB86FC868D8B9E8BC2
:1020E000AF8BB88F1FEF811A910AA10AB10A6DA1B7
:1020F0007EA18FA198A5A50194010E940A226901E1
:102100007A01098D1A8D2B8D3C8D4D855E856F85ED
:102110007889040F151F261F371F098F1A8F2B8FE1
:102120003C8F51E385169104A104B10409F072CFEC
:10213000C301B20125E030E040E050E00E940A22F5
:10214000211531054105510521F421E030E040E041
:1021500050E0D301C2010197A109B109821B930B81
:10216000A40BB50B81329105A105B10560F0205299
:10217000310941095109280F391F4A1F5B1F80E2AD
:1021800090E0A0E0B0E009851A85CD84DE84EF847C
:10219000F88861E4C61662E4D6066FE0E606F1044C
:1021A00078F0089FB001099F700D189F700D1124E1
:1021B0006034710510F06FE370E0E9A5FAA5648B57
:1021C000E9A5FAA58287238724872D8D3E8D4F8D23
:1021D00058A1C301B2010E94FA216B017C0125E0E4
:1021E00030E040E050E00E940A222115310541050F
:1021F000510521F421E030E040E050E0D701C60174
:102200000197A109B109821B930BA40BB50B813077
:10221000F1E09F07A105B10558F03150410951097E
:10222000280F391F4A1F5B1F80E091E0A0E0B0E05B
:10223000E9A5FAA516870587908B8787218B228BC6
:1022400029853A854B855C8569897A898B899C8942
:102250000E94FA219B01AC01C701B60115CEDC0139
:10226000CB0109811A812B813C81801B910BA20B30
:10227000B30B6C017D0100E010E098018983DA82E4
:10228000AB83FC820D831E832F8338871ECECF92B3
:10229000DF92EF92FF92FC012185213009F1A285A6
:1022A000B0E011968385A80FB11D30E00E945A223C
:1022B000278530892F5F3F4F4189420F532F511D92
:1022C0006A01F12CE12C21E06C157D058E059F053E
:1022D00009F020E0822FFF90EF90DF90CF900895DB
:1022E00021E0F8CFCF92DF92EF92FF92CF93DF936E
:1022F000EC018D859E85009709F449C0C12CD12C35
:1023000076018130914028F092E0C92ED12CE12C49
:10231000F12C2F8538892230310508F03DC06894B2
:10232000C2F89989911140C06894C4F88A898111D2
:1023300041C06894C6F88217130619F010F068942B
:10234000D0F8981710F46894D1F889858130B1F0ED
:10235000CE010E944711811102C06894D2F82A85EB
:10236000223070F56894D3F89B8591112EC0689443
:10237000D5F88C8581112EC06894D7F8C701B601B5
:10238000DF91CF91FF90EF90DF90CF900895C12C17
:10239000D12C7601C394BDCF213081E0380708F4F9
:1023A000C0CF6894C3F8BDCF913808F4BFCF68940C
:1023B000C5F8BCCF813808F4BECF6894C7F8BBCF4E
:1023C000213290F26894D4F8CFCF913190F2689492
:1023D000D6F8CFCF813110F06894E0F8281710F4C8
:1023E0006894E1F8981750F66894E2F8C7CFCF9256
:1023F000DF92EF92FF92FC01A1A1B0E0AD54BE4F7D
:102400002C91A0A130E0B0E00E944B226B017C0136
:10241000A6A1B0E0AD54BE4F2C91A7A130E0B0E032
:102420000E944B22C60ED71EE81EF91EA58DB0E0F5
:10243000AD54BE4F2C91A48D30E0B0E00E944B22F1
:102440006C0D7D1D8E1D9F1DFF90EF90DF90CF9036
:102450000895E82FF0E0ED54FE4F608170E090E0C9
:1024600080E00895CF92DF92EF92FF926B017C01A2
:1024700025E6C216D104E104F1042CF094E6C92E3D
:10248000D12CE12CF12C8CE9C8168FEFD806E80688
:10249000F80634F48CE9C82EDD24DA94ED2CFD2CFA
:1024A000A8E2B0E0A70196010E94612224E630E094
:1024B00040E050E00E942C2280911601909117017B
:1024C000A0911801B0911901820F931FA41FB51F8D
:1024D000893621E09207A105B10524F088E691E054
:1024E000A0E0B0E088392EEF92072FEFA207B207E5
:1024F00024F488E99EEFAFEFBFEF8093160190932D
:102500001701A0931801B0931901FF92EF92DF9287
:10251000CF928BEB91E09F938F930E94A4166091D2
:1025200016017091170180911801909119010F9077
:102530000F900F900F900F900F90FF90EF90DF9003
:10254000CF9008958F929F92AF92BF92CF92DF92D9
:10255000EF92FF92C12CD12C7601161617061806A1
:10256000190674F06C392FEF7207820792070CF48A
:102570006BC0CC24DD247601C61AD70AE80AF90A12
:10258000FF92EF92DF92CF9287EC91E09F938F932F
:102590000E94A4160F900F900F900F900F900F9025
:1025A00080900E0190900F01A0901001B090110149
:1025B000C114D104E104F10409F04CC06DE270E0F3
:1025C00080E090E0681979098A099B092AE030E0E7
:1025D00040E050E00E942C22820E931EA41EB51EE5
:1025E00080920E0190920F01A0921001B092110101
:1025F00060910E0170910F01809110019091110175
:10260000673971058105910524F066E970E080E085
:1026100090E0683D2FEF72078207920724F468ED7F
:102620007FEF8FEF9FEF60930E0170930F01809308
:10263000100190931101FF90EF90DF90CF90BF9029
:10264000AF909F908F90089584E6C82ED12CE12CF6
:10265000F12C96CFA3E0B0E0A70196010E94612281
:1026600022E330E040E050E00E942C22821A930ADC
:10267000A40AB50AB5CF4F925F926F927F928F9264
:102680009F92AF92BF92CF92DF92EF92FF92CF9341
:10269000DF93CDB7DEB76C970FB6F894DEBF0FBEF1
:1026A000CDBF2B013C015C014B0185E6481651046E
:1026B000610471042CF064E6862E912CA12CB12CBF
:1026C000B7FE03C0812C912C540169017A0197E077
:1026D000C916D104E104F1042CF046E0C42ED12C3B
:1026E000E12CF12C1C141D041E041F0424F0C12C29
:1026F000D12C7601C39488E1EDE5F1E0DE0111967D
:1027000001900D928A95E1F7FF92EF92DF92CF92BE
:10271000BF92AF929F928F9287ED91E09F938F939C
:102720000E94A41687E090E0A0E0B0E09C01AD011B
:102730002C193D094E095F09298F3A8F4B8F5C8F09
:102740000FB6F894DEBF0FBECDBF141415041604E7
:10275000170434F140900601509007016090080181
:1027600070900901D301C20183709927AA27BB2762
:10277000892B8A2B8B2BA1F4AEECBFEF298D3A8DE0
:102780004B8D5C8D0E946F22460E571E681E791E6F
:10279000409206015092070160920801709209016F
:1027A000A5E0B0E0A50194010E946122298D3A8D37
:1027B0004B8D5C8D0E942C22809106019091070127
:1027C000A0910801B0910901820F931FA41FB51FAA
:1027D0008093060190930701A0930801B09309012B
:1027E00051E0C51AD108E108F108CC0CDD1CCC0C75
:1027F000DD1CE1E0F0E0EC0FFD1FCE0EDF1EF60168
:10280000408151816281738184179507A607B707BC
:1028100044F44093060150930701609308017093BC
:102820000901609106017091070180910801909162
:1028300009016C960FB6F894DEBF0FBECDBFDF91D5
:10284000CF91FF90EF90DF90CF90BF90AF909F908F
:102850008F907F906F905F904F900895CF93CFB7F8
:10286000F8948091C503811127C0EAE9F0E08491D2
:10287000E6E8F0E09491E82FF0E0EE0FFF1FE2555C
:10288000FF4FA591B491EC91E92321F461E08AE036
:102890000E94A51961E08AE00E9469198CB58061E7
:1028A0008CBD8CB580648CBD61E08DE00E9469199F
:1028B00061E08BE00E9469198091C5038F5F80936E
:1028C000C503CFBFCF9108952FB7F89491E0882327
:1028D00039F092E0813021F082E08093C40390E0EF
:1028E0008091C303892B8093C3038091C40381111A
:1028F00003C081E08093C4032FBF089580E00C944F
:10290000401D0F931F93CF93DF93CDB7DEB768972A
:102910000FB6F894DEBF0FBECDBF80911A01882399
:1029200009F440C06091B2037091B3038091B40385
:102930009091B5030E9432126093BA047093BB0465
:102940008093BC049093BD046091B6037091B7036B
:102950008091B8039091B9030E94A2126093C204BF
:102960007093C3048093C4049093C5042091BE0364
:102970003091BF034091C0035091C1036091BA03ED
:102980007091BB038091BC039091BD030E943B13E7
:102990006093BE047093BF048093C0049093C104FD
:1029A00010921A018091C70380FD6AC08091AE0326
:1029B0009091AF032091B0033091B10339832A8302
:1029C0009B838C838091BA049091BB042091BC04BA
:1029D0003091BD043D832E839F83888780911201AF
:1029E00090911301209114013091150139872A87A4
:1029F0009B878C878091C2049091C3042091C4046A
:102A00003091C5043D872E879F87888B80910A016E
:102A100090910B0120910C0130910D01398B2A8B83
:102A20009B8B8C8B8091BE049091BF042091C0043D
:102A30003091C1043D8B2E8B9F8B888F08E110E075
:102A40009E012F5F3F4F40EA60E470E080E090E03D
:102A50000E94CD168091C7039091C8030196909370
:102A6000C8038093C7030E94261D68960FB6F8948A
:102A7000DEBF0FBECDBFDF91CF911F910F910895A3
:102A80000E94A016882331F3CE0101960E94E91717
:102A9000882301F3CE0101960E943F176091B20393
:102AA0007091B3038091B4039091B5030E943212E8
:102AB0006093BA047093BB048093BC049093BD04EC
:102AC0006091B6037091B7038091B8039091B903F8
:102AD0000E94A2126093C2047093C3048093C40442
:102AE0009093C5042091BE033091BF034091C00371
:102AF0005091C1036091BA037091BB038091BC03F4
:102B00009091BD030E943B136093BE047093BF0479
:102B10008093C0049093C1049DCF89EC93E00C9402
:102B20003808AF92BF92CF92DF92EF92FF920F934D
:102B30001F93CF93DF93CDB7DEB7C854D1090FB63B
:102B4000F894DEBF0FBECDBF7C01CE0101960E947E
:102B5000A101F70110811887C12ED12CA580B68064
:102B6000A601B501CE0109960E941F2587EF810FAE
:102B7000833030F183EF810F833020F18FEE810FAE
:102B8000833010F18BEE810F833000F187EE810FDF
:102B90008730F0F08FED810F8F30E0F08FEC810FF8
:102BA0008F30D8F480E4F601389621E030E02C0F25
:102BB0003D1FE20FF31F181778F411921F5FFBCF30
:102BC0008CE0F1CF80E1EFCF84E1EDCF88E1EBCF76
:102BD00080E2E9CF80E3E7CF1887F7011083A114E3
:102BE000B10419F0C5010E94D923F701008110E05A
:102BF000C8010E943D23F70196838583A801BE0189
:102C0000675F7F4F0E941F25C85BDF4F0FB6F894A8
:102C1000DEBF0FBECDBFDF91CF911F910F91FF900F
:102C2000EF90DF90CF90BF90AF900895CF92DF925A
:102C3000EF92FF920F93CF93DF93CDB7DEB7A897B4
:102C40000FB6F894DEBF0FBECDBF88EEC82E83E06E
:102C5000D82EE12CF12C08E028E438EE41E050E0D9
:102C600064E0CE0101960E947E0D1A8E81E090E014
:102C70009C8F8B8F9EA38DA34DE855E1BE016F5FA6
:102C80007F4F89EC93E00E941B0D862FA8960FB60C
:102C9000F894DEBF0FBECDBFDF91CF910F91FF90B3
:102CA000EF90DF90CF900895CF93DF93CDB7DEB74D
:102CB000CF54D1090FB6F894DEBF0FBECDBF2A9610
:102CC0002FAF2A972B963FAF2B972C964FAF2C9771
:102CD0002D965FAF2D972E966FAF2E972F967FAFC5
:102CE0002F9760968FAF6097CE0101960E94A10149
:102CF0002E968CAD9DADAEADBFAD2E9789839A83D8
:102D0000AB83BC832A964FAD2A97488750E06096E4
:102D10006EAD7FAD6097CE0109960E941F25BE0162
:102D20006F5F7F4F89EC93E00E945706C15BDF4FD6
:102D30000FB6F894DEBF0FBECDBFDF91CF910895DF
:102D400089EC93E00C941003CF93DF93CDB7DEB7FB
:102D5000C058D1090FB6F894DEBF0FBECDBF9E019B
:102D60002B573F4FF901419151919F0160E870E06D
:102D7000CE0101960E943A25BE016F5F7F4F8DE123
:102D800094E00E94391CC058DF4F0FB6F894DEBFA4
:102D90000FBECDBFDF91CF9108957F928F929F920A
:102DA000AF92BF92CF92DF92EF92FF920F931F9359
:102DB000CF93DF9300D000D000D01F92CDB7DEB705
:102DC0004B015C01742E690181EF91E00D33110517
:102DD00048F480E490E00E943D237C010097E1F4F8
:102DE00089E192E09F938F930E94A4160F900F9019
:102DF00027960FB6F894DEBF0FBECDBFDF91CF91FF
:102E00001F910F91FF90EF90DF90CF90BF90AF9008
:102E10009F908F907F900895FC0170820183A8019C
:102E2000B60102960E941F258A829B82AC82BD82D7
:102E3000FF82EE820E5F0983CE0101960E949115FA
:102E400029813A814B815C816D817E818F810E94D5
:102E50005416C70127960FB6F894DEBF0FBECDBF3C
:102E6000DF91CF911F910F91FF90EF90DF90CF9066
:102E7000BF90AF909F908F907F900C94D923FF923A
:102E80000F931F93CF93DF938C01009741F0FC01C8
:102E900085819681009719F02081233070F48BE3AF
:102EA00092E09F938F930E94A4160F900F90DF9152
:102EB000CF911F910F91FF900895FC01F180CF2DCC
:102EC000D0E0AE014E5F5F4F2417150618F485E57C
:102ED00092E0E7CFBC016E5F7F4FAE010E942825D4
:102EE000F801F082BE01858196810E946224EC0186
:102EF000009719F0F801968385838BE892E09F9301
:102F00008F930E94A4168FEB92E09F938F930E9461
:102F1000A4168DEC92E09F938F930E94A4168A8151
:102F20009B81982789279827092E000CAA0BBB0B99
:102F30008093B2039093B303A093B403B093B5030B
:102F40008E819F81982789279827092E000CAA0B2C
:102F5000BB0B8093B6039093B703A093B803B093D1
:102F6000B9038A859B85982789279827092E000C05
:102F7000AA0BBB0B8093BA039093BB03A093BC0333
:102F8000B093BD038E859F85982789279827092EA2
:102F9000000CAA0BBB0B8093BE039093BF03A093BE
:102FA000C003B093C1038CE093E09F938F930E9482
:102FB000A4168DB79EB708960FB6F8949EBF0FBEA5
:102FC0008DBFCE01DF91CF911F910F91FF900C9497
:102FD000D923EF92FF920F931F93CF93DF93CDB737
:102FE000DEB7C854D1090FB6F894DEBF0FBECDBF0F
:102FF0007C01CE0101960E94A10189EC93E00E9420
:103000001003882319F1BE016F5F7F4F89EC93E0B5
:103010000E943A0889819A81AB81BC81F701818342
:103020009283A383B4830885008310E0C8010E94C3
:103030003D23F70196838583009751F486ED92E056
:103040009F938F930E94A4160F900F9080E007C06B
:10305000A801BE01675F7F4F0E941F2581E0C85B0A
:10306000DF4F0FB6F894DEBF0FBECDBFDF91CF911B
:103070001F910F91FF90EF9008950F931F93CF939F
:10308000DF9326E040E052EC61E070E08DE194E0F7
:103090000E940E1B0E942E148FEF92E09F938F933D
:1030A0000E94A4160F900F900EE013E0C9E1D3E048
:1030B0000E941616882399F01F930F930E94A4165E
:1030C0000E9416161F928F93DF93CF930E94A4162F
:1030D0000F900F900F900F900F900F90E9CF60E13D
:1030E00077E280E090E00E94411C8DE193E09F93A5
:1030F0008F930E94A4160F900F90DF91CF911F9194
:103100000F91089581E088B992E0909368008093D0
:103110006C008FEF8CBB78940E9405190E943D18BB
:1031200080E00E949F1C90E080E0089522E046EC41
:1031300053E069E089EC93E00C94D7028091EC03B2
:103140009091ED03009711F00E94FB1B8091DA0330
:103150009091DB03009711F00C94FB1B08951F92D4
:103160000F920FB60F9211242F933F938F939F933B
:10317000AF93BF938091150490911604A09117040A
:10318000B09118043091140423E0230F2D3758F523
:103190000196A11DB11D20931404809315049093F2
:1031A0001604A0931704B093180480911904909109
:1031B0001A04A0911B04B0911C040196A11DB11D1D
:1031C0008093190490931A04A0931B04B0931C04D9
:1031D000BF91AF919F918F913F912F910F900FBE13
:1031E0000F901F90189526E8230F0296A11DB11D80
:1031F000D2CF2FB7F8946091150470911604809186
:103200001704909118042FBF0895789484B58260B4
:1032100084BD84B5816084BD85B5826085BD85B57A
:10322000816085BDEEE6F0E0808181608083E1E829
:10323000F0E0108280818260808380818160808361
:10324000E0E8F0E0808181608083E1EBF0E0808164
:1032500084608083E0EBF0E0808181608083EAE736
:10326000F0E08081846080838081826080838081BF
:10327000816080838081806880831092C10008957E
:10328000833081F028F4813099F08230A9F00895DC
:103290008730A9F08830C9F08430B1F48091800083
:1032A0008F7D03C0809180008F7780938000089588
:1032B00084B58F7784BD089584B58F7DFBCF8091D1
:1032C000B0008F778093B00008958091B0008F7D1B
:1032D000F9CFCF93DF9390E0FC01E458FF4F2491A6
:1032E00080579F4FFC0184918823C9F090E0880F9C
:1032F000991FFC01E255FF4FA591B491FC01EC55DB
:10330000FF4FC591D49161110DC09FB7F8948C9176
:10331000209582238C938881282328839FBFDF9167
:10332000CF910895623051F49FB7F8943C91822F69
:10333000809583238C93E8812E2BEFCF8FB7F89461
:10334000EC912E2B2C938FBFEACF1F93CF93DF935B
:10335000282F30E0F901E859FF4F8491F901E45832
:10336000FF4FD491F901E057FF4FC491CC23A9F04E
:10337000162F81110E944019EC2FF0E0EE0FFF1F75
:10338000EC55FF4FA591B4918FB7F894EC911111C2
:1033900008C0D095DE23DC938FBFDF91CF911F91C2
:1033A0000895DE2BF8CF08958230E8F4E82FF0E09E
:1033B000EE0FFF1FE75AFE4F71836083813041F0AB
:1033C000809169008C7F482B40936900E89A0895AA
:1033D00080916900837F440F551F440F551F482B70
:1033E00040936900E99A08951F920F920FB60F92C9
:1033F00011242F933F934F935F936F937F938F93FA
:103400009F93AF93BF93EF93FF93E0915901F09196
:103410005A010995FF91EF91BF91AF919F918F91C3
:103420007F916F915F914F913F912F910F900FBEC0
:103430000F901F9018951F920F920FB60F921124A4
:103440002F933F934F935F936F937F938F939F93AC
:10345000AF93BF93EF93FF93E0915B01F0915C0119
:103460000995FF91EF91BF91AF919F918F917F91BE
:103470006F915F914F913F912F910F900FBE0F90E1
:103480001F901895FC01918D228D892F90E0805C12
:103490009F4F821B91098F7399270895FC01918D8D
:1034A000828D981731F0828DE80FF11D858D90E0A7
:1034B00008958FEF9FEF0895FC01918D828D9817ED
:1034C00061F0A28DAE0FBF2FB11D5D968C91928DD4
:1034D0009F5F9F73928F90E008958FEF9FEF089505
:1034E000FC01538D448D252F30E0842F90E0821B0A
:1034F000930B541710F0CF96089501970895FC018F
:10350000A48DA80FB92FB11DA35ABF4F2C91848D44
:1035100090E001968F739927848FA689B7892C93A1
:10352000A089B1898C91837080648C93938D848DF4
:10353000981306C00288F389E02D80818F7D8083F7
:103540000895CF93DF93EC01888D8823B9F0AA8981
:10355000BB89E889F9898C9185FD03C0808186FD4E
:103560000DC00FB607FCF7CF8C9185FFF2CF80819D
:1035700085FFEDCFCE010E947F1AE9CFDF91CF9179
:103580000895EF92FF920F931F93CF93DF93EC0177
:1035900081E0888F9B8D8C8D98131AC0E889F989FA
:1035A000808185FF15C09FB7F894EE89FF896083FD
:1035B000E889F98980818370806480839FBF81E07E
:1035C00090E0DF91CF911F910F91FF90EF900895C0
:1035D000F62E0B8D10E00F5F1F4F0F731127E02E9B
:1035E0008C8D8E110CC00FB607FCFACFE889F989D3
:1035F000808185FFF5CFCE010E947F1AF1CFEB8D40
:10360000EC0FFD2FF11DE35AFF4FF0829FB7F894A6
:103610000B8FEA89FB8980818062CFCFCF92DF92C6
:10362000EF92FF921F93CF93DF93EC016A017B012E
:10363000122FE889F98982E08083C11481EED806CF
:10364000E104F104A1F060E079E08DE390E0A701EE
:1036500096010E940A2221503109410951095695CB
:10366000479537952795211580E1380798F0E88927
:10367000F989108260E874E88EE190E0A701960174
:103680000E940A2221503109410951095695479556
:1036900037952795EC85FD853083EE85FF85208362
:1036A000188EEC89FD891083EA89FB89808180610D
:1036B0008083EA89FB89808188608083EA89FB892D
:1036C000808180688083EA89FB8980818F7D808307
:1036D000DF91CF911F91FF90EF90DF90CF900895F1
:1036E0001F920F920FB60F9211242F938F939F93D7
:1036F000EF93FF93E0912D04F0912E048081E091EF
:103700003304F091340482FD1BC090818091360413
:103710008F5F8F7320913704821741F0E091360458
:10372000F0E0E35EFB4F958F80933604FF91EF91BD
:103730009F918F912F910F900FBE0F901F90189512
:103740008081F4CF1F920F920FB60F9211242F9306
:103750003F934F935F936F937F938F939F93AF9319
:10376000BF93EF93FF938DE194E00E947F1AFF9146
:10377000EF91BF91AF919F918F917F916F915F91E9
:103780004F913F912F910F900FBE0F901F90189562
:10379000EDE1F4E01382128288EE93E0A0E0B0E065
:1037A00084839583A683B78380EA93E091838083A3
:1037B00085EC90E09587848784EC90E097878687F6
:1037C00080EC90E0918B808B81EC90E0938B828BEE
:1037D00082EC90E0958B848B86EC90E0978B868BC7
:1037E000118E128E138E148E08950C943D230C941A
:1037F0003D230C94D9230C94D923AF92BF92CF923E
:10380000DF92EF92FF920F931F93CF93DF936C01A0
:103810007B018B01040F151FEB015E01AE18BF0881
:10382000C017D10759F06991D601ED91FC91019033
:10383000F081E02DC6010995892B79F7C501DF914B
:10384000CF911F910F91FF90EF90DF90CF90BF909D
:10385000AF900895FB0101900020E9F73197AF0187
:10386000461B570BDC01ED91FC910280F381E02DAA
:1038700009946115710511F00C942A1C90E080E008
:103880000895109281001092800010928200109290
:10389000850010928400611520E172078105910571
:1038A000A0F4E4E0660F771FEA95E1F76150710933
:1038B00081E092E096BB90936F00709389006093D3
:1038C00088008860809381000895611520E8720760
:1038D0008105910530F4660F771F6150710982E010
:1038E000E8CF6C3F2FEF720723E08207910558F471
:1038F00042E096958795779567954A95D1F76150FF
:10390000710983E0D6CF6115710520E18207910529
:1039100058F434E096958795779567953A95D1F761
:103920006150710984E0C5CF26E09695879577951B
:1039300067952A95D1F76150710985E0BACF7F92DA
:103940008F929F92AF92BF92CF92DF92EF92FF92AF
:103950000F931F93CF93DF9300D0CDB7DEB70091C5
:10396000390310913A039FB7F894D80118962D9116
:103970003C91232B99F09FBF81E090E00F900F9036
:10398000DF91CF911F910F91FF90EF90DF90CF903B
:10399000BF90AF909F908F907F90089520ED31E27F
:1039A0003A832983C0903B03D0903C0321E030E070
:1039B000F801318720878287E0913D03F0913E0333
:1039C00024E0829FC0011124E80FF91FA280B38078
:1039D000F12CE12C4F0186E0782EEA14FB04E1F48F
:1039E000F80180859185019721F482E090E091872C
:1039F0008087D80118968D919C91029751F4F60119
:103A000062817381AB01C6010E94D200C6010E948F
:103A1000A41E90E080E0B2CFD401ED91FC917E9C99
:103A2000C0017F9C900D1124E80FF91FA081B18186
:103A30002481358142815381BD0112968D919C91E3
:103A40000E943D21BFEFEB1AFB0AC7CFE09139037B
:103A5000F0913A03A081B1818785882319F01786F8
:103A600085858FBF8189882311F0118A78948FB75B
:103A7000F89468EB71E212968D919C910E94F2008D
:103A8000CF9390E020913303309134038217930752
:103A900018F52091310330913203880F991F820F5E
:103AA000931FFC0180819181CFB7F8940E94772009
:103AB000E0913903F0913A030190F081E02D878184
:103AC0009085029720F487E293E00E94B11FCFBF58
:103AD00090E080E0CF91089583E090E0FBCFDC019F
:103AE0001496ED91FC9184E090E093838283089595
:103AF000EC01EC81FD81818124E030E0338322837D
:103B00008F3F09F07894E985FA850995E0913903AA
:103B1000F0913A03108A8785882319F017868585E6
:103B20008FBF8189882311F0118A78948FB7F89418
:103B30008F819885EC81FD81029709F5A481B5817B
:103B4000109731F468EB71E28A819B810E94F20048
:103B50000D90BC91A02D14961C921E9213978D91DE
:103B60009C9195838483EACF0D90BC91A02D1496EF
:103B70001C921E9213978D919C9195838483A481AE
:103B8000B581109789F7DECFE0913903F0913A03C0
:103B9000808591850297E1F380913B0390913C03EE
:103BA0000C949D210F931F93CF93DF93EC01A88179
:103BB000B981EB01E881F9811696CD91DC911797D7
:103BC0002097C1F18A819B81309709F43FC0EC01B5
:103BD0000C811D8122813381E9014C815D81E801E5
:103BE0003981EA012981321788F522E030E0E801C5
:103BF0003B832A8320813181EB0139832883C28171
:103C0000D3812C813D8116964D915C9117975183FC
:103C100040831796FC93EE931697CD93DC934C85D7
:103C2000F9015181541708F44183DF91CF911F911D
:103C30000F910895309751F0EC018A819B81EC013E
:103C40004C815D8122E030E0EA01D2CF90E080E05B
:103C5000ECCFCF93DF93DB011296ED91FC914115F0
:103C60005105A1F02385DC01ED91FC91B0E0A0E0CD
:103C7000309789F4109709F16D937C9390E080E080
:103C8000DB01ED93FC93DF91CF9108950480F581E2
:103C9000E02D2181E8CFC281D3814115510541F04A
:103CA0003B85321738F3DF010190F081E02DE0CF42
:103CB0000C80DD81C02D3981F4CFDC016D937C93C4
:103CC00081E090E0DDCFFB015383428341E050E08F
:103CD0000C94291EEF92FF920F931F93CF93DF93C3
:103CE0008C01FC01C081D181EE80FF80F7018081D1
:103CF00091819F838E83C8010E94D21D892B41F43C
:103D0000EE81FF81309761F082819381998388836E
:103D1000C701DF91CF911F910F91FF90EF90089510
:103D2000F801F2CFDC011496ED91FC91159790818A
:103D30001D968C91981728F49F5F908390E080E007
:103D4000089584E090E00895DC011496ED91FC91D3
:103D500015971B968C91818380818150808381117E
:103D600003C013821282089581E090E093838283DE
:103D70000895DC011496ED91FC9180859185862B48
:103D8000972B91878087DA011D921C9286819781FB
:103D900068237923672B39F082859385009729F072
:103DA00013861286089590E080E00895E09129033B
:103DB000F0912A0390E0880F991FE80FF91F6081A6
:103DC0007181DB011496ED91FC9180818F5F80837E
:103DD00050E040E087E293E00C94CC1FAB01FB0184
:103DE000A481B581E0913903F0913A0312968D9147
:103DF0009C911397892B51F481E090E013969C934A
:103E00008E93129719961C921E921897A481B581D1
:103E10008D919C9111979583848311961C921E928B
:103E2000BD01CF0102960C94631E0F931F93CF9395
:103E3000DF93DB0112964D915C91FA01C481D5812B
:103E40000091390310913A0382E090E09B838A83CA
:103E500083858983C80102960E94631E019791F4AD
:103E6000D801ED91FC910480F581E02D81E090E096
:103E700039812181231708F080E0DF91CF911F91D4
:103E80000F91089580E090E0F8CFAF92BF92CF926B
:103E9000DF92EF92FF920F931F93CF93DF93C09126
:103EA0003903D0913A03FE01E190F1906F01F701DF
:103EB00004811581FB01F182E082F8018281938106
:103EC000049731F5B60189E393E00E946A1E5C0114
:103ED000C880D980EC14FD04B1F0C7010E94A41E73
:103EE0008C819D81F50191838083BD82AC82C60166
:103EF000DF91CF911F910F91FF90EF90DF90CF90C6
:103F0000BF90AF900895F801808181508083E8CF01
:103F10006E817F81FB01808191819F838E83F70178
:103F20008385F801818381E090E09383828380819F
:103F3000813011F411861086A701C6010E94631E0C
:103F4000B60189E393E00E94D21D892B39F4EE81FA
:103F5000FF81C280D380D982C882C9CFC880D9806E
:103F6000C6CFCF93DF93C0913903D0913A03BE01FE
:103F70006E5F7F4F89E393E00E94D21D009749F066
:103F8000688179810E94772181E090E0DF91CF9173
:103F9000089590E080E0FACFCF93DF93E09139036A
:103FA000F0913A038081918126813781EC01AC81C7
:103FB000BD811296CD91DC911397249731F4C2E024
:103FC000D0E01396DC93CE931297718360834115F2
:103FD0005105B9F4A481B5814D915C911197558338
:103FE000448311961C921E92B783A6830680F781A4
:103FF000E02D7383628331832083DF91CF910C9412
:10400000772157834683F2CFAF92BF92CF92DF9250
:10401000EF92FF920F931F93CF93DF93DC01AD904C
:10402000BC90E501E881F9812A813B81DB01CD90DB
:10403000DC90E6015B834A8381E090E0B0E0A0E0A1
:10404000309711F00097A9F4109779F10D90BC9179
:10405000A02D6D937C93E601F983E883DF91CF91E6
:104060001F910F91FF90EF90DF90CF90BF90AF9096
:10407000089500811181E801EA80FB802E153F053B
:1040800058F44E155F0518F42417350758F0DF0172
:10409000E801E881F981D4CF2417350718F04E15CF
:1040A0005F05A8F790E080E0CBCFD501D2CFCF93CA
:1040B000DF93DC011296ED91FC9113970D90BC916A
:1040C000A02D12962D913C91DF01A41BB50BA217D8
:1040D000B30730F0420F531FDF91CF910C940420AF
:1040E00041505109420F531F4E1B5F0BF5CF8F926A
:1040F0009F92AF92BF92CF92DF92EF92FF920F9377
:104100001F93CF93DF9300D0CDB7DEB7DC01CD9006
:10411000DC901197F6012281338112964D915C91CA
:104120002417350708F471C01382128230E020E0B2
:10413000F601008111810115110509F457C0D8015C
:10414000ED91FC911197428153814217530709F079
:104150004DC023E0E22EF12C2D913C91F901F58226
:10416000E482A081B181109749F06D917C91119703
:10417000FB01628173814617570771F37C01F901D6
:1041800011821082F601B183A08382E0C82ED12C67
:10419000D801ED91FC911197A080B1801A8219820B
:1041A0001C968D919C911D978130910509F442C018
:1041B00088F18230910509F452C0039709F455C083
:1041C000D801ED91FC9184819581039761F446813A
:1041D00057814115510509F44DC0D582C482B801FB
:1041E000C7010E9457208501AB2891F60F900F90D0
:1041F000DF91CF911F910F91FF90EF90DF90CF90C3
:10420000BF90AF909F908F9008952F5F3F4F338363
:1042100022838ECFF80186809780C4010E94921E6F
:104220009A838983892B61F6B40187E293E00E9427
:10423000EE1EC6CF1A966D917C911B97AE014F5F13
:104240005F4F16968D919C910E94B91E009709F4BC
:10425000B7CFBC0187E293E00E94151FB1CFF801F0
:10426000808591850E947720ABCF1496ED91FC91CB
:104270000995A6CF15821482B6CFCF93DF93DB01C9
:10428000ED91FC91A481B581A230B10568F5378329
:104290002683119711F5EC012A813B81A881B98110
:1042A00012968D919C91B901641B750B6817790763
:1042B00068F0480F591F5383428384E090E0958350
:1042C000848390E080E0DF91CF91089541505109BF
:1042D000480F591F421B530BEECF22E030E03583CD
:1042E00024830E945720EDCF87E090E0ECCFFB01C4
:1042F000DC0112964D915C9162817381A481B5813C
:1043000012968D919C91029719F4CF010C948A001A
:10431000CF010C94D200CB01DB0112966D917C9100
:1043200013971496ED91FC9122813381223031054F
:1043300011F40C94AA000C94CA00DC0112966D9141
:104340007C911397ED91FC9140815181DB01ED91BE
:10435000FC91228933892115310519F04217530741
:1043600029F4DB01ED93FC930C94AA00F901F1CF41
:10437000CF93DF9300D0CDB7DEB7BE016F5F7F4F25
:1043800087E293E00E94451FBC0189819A810E94C7
:104390008B210F900F90DF91CF910895F894FFCF6C
:1043A000ECE908958F939F9380E00E94DA219F911A
:1043B0008F9118951F920F920FB60F9211242F9381
:1043C0003F934F935F936F937F93AF93BF93EF931D
:1043D000FF930E94D61EFF91EF91BF91AF917F9105
:1043E0006F915F914F913F912F910F900FBE0F9062
:1043F0001F900895DB018F939F930E946122BF91CC
:10440000AF91A29F800D911DA39F900DB29F900D23
:1044100011240895A1E21A2EAA1BBB1BFD010DC099
:10442000AA1FBB1FEE1FFF1FA217B307E407F50764
:1044300020F0A21BB30BE40BF50B661F771F881F40
:10444000991F1A9469F760957095809590959B01D6
:10445000AC01BD01CF010895052E97FB1EF4009419
:104460000E94432257FD07D00E940A2207FC03D076
:104470004EF40C94432250954095309521953F4F32
:104480004F4F5F4F089590958095709561957F4F40
:104490008F4F9F4F0895A29FB001B39FC001A39F6C
:1044A000700D811D1124911DB29F700D811D11246D
:1044B000911D08950E944B22B7FF0895821B930B14
:1044C00008950E944B22A59F900DB49F900DA49F2C
:1044D000800D911D11240895B7FF0C9461220E9454
:1044E0006122821B930B0895DF93CF931F930F9349
:1044F0009A9DF02D219FF00D8B9DF00D8A9DE02D52
:10450000F10D039FF00D029FE00DF11D4E9DE00D9A
:10451000F11D5E9DF00D4F9DF00D7F936F93BF9247
:10452000AF925F934F93D5010E944B228B01AC0158
:10453000D7010E944B22EB01E80FF91FD6010E9420
:10454000C3222F913F91D6010E944B22C60FD71F45
:10455000E81FF91FAF91BF910E94C3222F913F9195
:104560000E944B22C60FD71FE81FF91FD6010E94D9
:104570004B22E60FF71F9801BE01CF010F911F914B
:10458000CF91DF9108950E944B22460F571FC81FFD
:10459000D91F08F431960895E894DF93CF93FC0176
:1045A000DB010E944B227F936F93E9019A01AC01DA
:1045B000BF93AF933F932F93DF010E944B2226F4CA
:1045C0006C1B7D0B820B930B9E01EB01FC010E9487
:1045D000C322AF91BF912F913F910E94C322BE0190
:1045E000CF01F9012F913F91CF91DF9108952F9243
:1045F0003F924F925F926F927F928F929F92AF9273
:10460000BF92CF92DF92EF92FF920F931F93CF93BF
:10461000DF93CDB7DEB7CA1BDB0B0FB6F894DEBF56
:104620000FBECDBF09942A88398848885F846E847C
:104630007D848C849B84AA84B984C884DF80EE80C6
:10464000FD800C811B81AA81B981CE0FD11D0FB6CF
:10465000F894DEBF0FBECDBFED0108952A153B05CE
:104660004C055D056E057F05800791070895EE0FE7
:10467000FF1F0590F491E02D09940F931F93CF93A2
:10468000DF938230910510F482E090E0E091C9045C
:10469000F091CA0430E020E0B0E0A0E0309799F457
:1046A0002115310509F44AC0281B390B2430310586
:1046B000D8F58A819B816115710589F1FB0193838E
:1046C0008283FE0111C0408151810281138148170C
:1046D0005907E0F04817590799F4109761F01296BE
:1046E0000C93129713961C933296CF01DF91CF91C2
:1046F0001F910F9108950093C9041093CA04F4CF39
:104700002115310551F04217530738F0A901DB019B
:104710009A01BD01DF01F801C1CFEF01F9CF9093FC
:10472000CA048093C904CDCFFE01E20FF31F819329
:1047300091932250310939832883D7CF2091C70420
:104740003091C804232B41F42091020130910301E0
:104750003093C8042093C7042091000130910101D7
:104760002115310541F42DB73EB740910401509118
:104770000501241B350BE091C704F091C804E21732
:10478000F307A0F42E1B3F0B2817390778F0AC0174
:104790004E5F5F4F2417350748F04E0F5F1F509351
:1047A000C8044093C704819391939FCFF0E0E0E069
:1047B0009CCFCF93DF930097E9F0FC0132971382EF
:1047C0001282A091C904B091CA04ED0130E020E04A
:1047D0001097A1F420813181820F931F2091C7048B
:1047E0003091C8042817390709F061C0F093C80454
:1047F000E093C704DF91CF910895EA01CE17DF0758
:10480000E8F54A815B819E0141155105B1F7E90147
:10481000FB83EA8349915991C40FD51FEC17FD071B
:1048200061F4808191810296840F951FE90199833B
:104830008883828193819B838A83F0E0E0E01296F3
:104840008D919C9113970097B9F52D913C911197FB
:10485000CD010296820F931F2091C7043091C804A6
:104860002817390739F6309751F51092CA0410927B
:10487000C904B093C804A093C704BCCFD383C28338
:1048800040815181840F951FC817D90761F44E5F8D
:104890005F4F88819981480F591F518340838A81D6
:1048A0009B81938382832115310509F0B0CFF0936A
:1048B000CA04E093C9049ECFFD01DC01C0CF13827E
:1048C0001282D7CFB0E0A0E0E8E6F4E20C94F9223F
:1048D0008C01009751F4CB010E943D238C01C8014B
:1048E000CDB7DEB7E0E10C941523FC01E60FF71F0E
:1048F0009C0122503109E217F30708F49DC0D90149
:10490000CD91DC911197C617D70798F0C530D10526
:1049100030F3CE0104978617970708F3C61BD70B11
:104920002297C193D1936D937C93CF010E94D92399
:10493000D6CF5B01AC1ABD0A4C018C0E9D1EA09116
:10494000C904B091CA04512C412CF12CE12C1097D0
:1049500031F58091C7049091C8048815990509F034
:104960005CC04616570608F058C08091000190912F
:104970000101009741F48DB79EB740910401509119
:104980000501841B950BE817F90708F055C0F09353
:10499000C804E093C704F90171836083A0CF8D91AF
:1049A0009C91119712966C90129713967C90139786
:1049B000A815B90559F56C0142E0C40ED11CCA1402
:1049C000DB0420F1AC014A195B09DA011296159754
:1049D00080F06282738251834083D9016D937C930E
:1049E000E114F10471F0D7011396FC93EE93129742
:1049F00076CF22968C0F9D1FF90191838083F3015E
:104A0000EFCFF093CA04E093C90469CF4816590662
:104A100008F42C017D01D3019ACFCB010E943D23E4
:104A20007C01009749F0AE01B8010E941F25C80122
:104A30000E94D923870153CF10E000E050CFFB0143
:104A4000DC0102C001900D9241505040D8F708950A
:104A50006817790768F4FB01DC01E40FF51FA40F68
:104A6000B51F02C002900E9241505040D8F70895F1
:104A70000C941F25AEE0B0E0E0E4F5E20C940523D1
:104A80008C01FA0186E08C831A83098377FF02C0C8
:104A900060E070E8615071097E836D83A901BF01F8
:104AA000CE0101960E9466254D815E8157FD0AC0A8
:104AB0002F813885421753070CF49A01020F131FF8
:104AC000F80110822E96E4E00C942123ABE0B0E0D4
:104AD000ECE6F5E20C94F7227C013B018A01FC0133
:104AE00017821682838181FFC8C1CE0101965C01C5
:104AF000F7019381F30193FD859193FF81913F012C
:104B0000882309F453C1853239F493FD859193FFCD
:104B100081913F01853229F4B70190E00E94562728
:104B2000E7CF912C212C312CFFE1F31538F08B329B
:104B300011F190F4803209F1833229F137FC3CC045
:104B400020ED280F2A3050F536FE20C08AE0989ECE
:104B5000200D1124922E06C08D3291F0803371F712
:104B6000689430F8F30193FD859193FF81913F01A3
:104B70008111DACF21C0689431F8689432F8F2CF0D
:104B8000689433F8EFCF689434F8ECCFEAE02E9EC7
:104B9000200D1124222E689435F8E4CF8E3229F4AA
:104BA00036FC04C1689436F8DDCF8C3619F468946D
:104BB00037F8D8CF8836B1F2982F9F7D955493302F
:104BC000E0F08336A1F18337C1F1833509F063C08A
:104BD0002801F2E04F0E511CF801C080D180692DF0
:104BE00070E036FC02C06FEF7FEFC6010E944027E5
:104BF0004C01689437F882010AC00C5F1F4FFFE335
:104C0000F98388248394912C6501E89437F833FE66
:104C10002DC0522C8114910471F5552009F468CFF0
:104C2000B70180E290E00E9456275A94F6CFF8012F
:104C3000808189830E5F1F4FE4CF2801F2E04F0E81
:104C4000511CF801C080D180692D70E036FC02C093
:104C50006FEF7FEFC6010E944B274C018201D5CF39
:104C6000B70180E290E00E9456272A942814190484
:104C700009F0B0F7CECFF60137FC859137FE819170
:104C80006F01B70190E00E94562751105A94F1E04D
:104C90008F1A9108BFCF843619F0893609F077C092
:104CA000F80137FE6BC060817181828193810C5F56
:104CB0001F4FF32DFF763F2E97FF09C090958095EB
:104CC000709561957F4F8F4F9F4F689437F82AE01A
:104CD00030E0A5010E948627C82ECA188C2C432CD0
:104CE00036FE0CC0E89440F8C91440F434FE05C008
:104CF00032FC03C0F32DFE7E4F2E892C44FE95C05E
:104D0000FE01EC0DF11D8081803309F087C0242D58
:104D1000297E422E842D8870582E43FC95C040FE7B
:104D20008FC09C2C821418F42C0C922C981844FEE2
:104D300091C0B70180E390E00E94562742FE09C06F
:104D400088E790E041FE02C088E590E0B7010E944C
:104D50005627C91408F48AC0CA94D12C9FEFC91AE7
:104D6000D90ACA0CDB1CF60182916F01B70190E0F1
:104D70000E945627AC14BD04B1F74FCF60817181FA
:104D8000072E000C880B990B0E5F1F4F92CFD32C70
:104D9000E894D4F82AE030E0853739F1232D297FD3
:104DA000D22E8F3601F148F48835A9F0F7018681BB
:104DB00097812B96E2E10C941323803749F08837D2
:104DC000A9F7D4FE02C06894D2F820E130E00DC00B
:104DD0006894D4F8F6CF34FE03C0822F8660D82EB4
:104DE00020E132E002C028E030E0F801D7FE0FC039
:104DF00060817181828193810C5F1F4FA5010E94A8
:104E00008627C82ECA183D2CE89437F867CF6081F2
:104E1000718190E080E00E5F1F4FF0CF42FC02C036
:104E2000839478CF8394839475CF842D867809F406
:104E300071CFF6CFB70180E290E00E9456278394AD
:104E40008214C0F3512C73CF522C5818821408F4DA
:104E50006ECFF8CF842D867809F47BCF8BE241FEAC
:104E600080E247FC8DE2B70190E071CFB70180E3AB
:104E700090E00E9456279A946CCF8FEF9FEF99CFC6
:104E8000FC010590615070400110D8F78095909515
:104E90008E0F9F1F0895FC0161507040019001101A
:104EA000D8F7809590958E0F9F1F08950F931F93AD
:104EB000CF93DF93182F092FEB018B8181FD09C060
:104EC0001FEF0FEF812F902FDF91CF911F910F9147
:104ED000089582FF14C02E813F818C819D81281707
:104EE00039073CF4E881F981CF01019699838883E1
:104EF00010838E819F8101969F838E83E3CFE88507
:104F0000F985812F0995892BA1F3DACFFA01AA2718
:104F1000283051F1203181F1E8946F936E7F6E5FFC
:104F20007F4F8F4F9F4FAF4FB1E03ED0B4E03CD0AA
:104F3000670F781F891F9A1FA11D680F791F8A1F8D
:104F4000911DA11D6A0F711D811D911DA11D20D0F4
:104F500009F468943F912AE0269F11243019305DAE
:104F60003193DEF6CF010895462F4770405D41939F
:104F7000B3E00FD0C9F7F6CF462F4F70405D4A33EC
:104F800018F0495D31FD4052419302D0A9F7EACFB4
:104F9000B4E0A6959795879577956795BA95C9F7E3
:104FA00000976105710508959B01AC010A2E0694D6
:104FB0005795479537952795BA95C9F7620F731F8F
:104FC000841F951FA01D089510E0CEE5D0E004C019
:104FD000FE010E9437232196CF35D107C9F7F894F7
:024FE000FFCF01
:104FE2000000CB048000DC050000A00F00002D00B3
:104FF200000012000000CEFFFFFF018A0300002D17
:105002000100000000FF000000000000003101006C
:10501200000000000000800000000000000000000E
:105022000000010000000000000000000001000478
:10503200000000000000000000D319D3194C040046
:1050420000280A0000E40C0000100E0000D80E0038
:1050520000F8110000100010001000100001010003
:105062000000000001020304050607080C101418D2
:1050720020304000093D0080841E00005A62020078
:105082002D3101002D310180969800005A620200F4
:105092002D31011014181C2028384873746565726C
:1050A2003A20256C640A0070616E5F706F776572DA
:1050B2003A20256C640A007468726F74746C653AE5
:1050C20020256C642C20676561723A20256C640A85
:1050D200005B4552524F525D20544C5620746F6F04
:1050E200206C6172676520666F722073696E676CEF
:1050F20065206672616D650A005B4552524F525DD2
:10510200204D656D6F727920616C6C6F636174699B
:105112006F6E206661696C65640A005B5741524E8E
:105122005D20496E76616C696420544C562046724B
:10513200616D650A005B5741524E5D204465636CA8
:105142006172656420544C56206C656E67746820E9
:10515200657863656564732061637475616C20664C
:1051620072616D652073697A650A002D2D2D2D2DD2
:105172002D2D2D2D2D2D2D2D2D2D2D2D2D2D2D2D5D
:105182002D2D2D2D2D2D2D2D2D2D2D2D2D2D2D2D4D
:105192002D2D2D2D2D2D2D2D2D2D2D2D2D0A005268
:1051A20065636569766520646F6E650A005B5641CA
:1051B2004C55455D0A004D656D6F727920616C6CCE
:1051C2006F636174696F6E206661696C65642069E2
:1051D2006E2043414E5F726561644D73670A006CD5
:1051E200657427732073657269616C200A00696EA9
:1051F2006974206661696C0A0025640A0043414EA5
:1052020020696E69740A00C604680303006303011F
:10521200005B0301004B0301001B018A03410301F0
:1052220000450301004D03050050004D0301045DDC
:105232000300007C030000000000005D030904FF7E
:10524200FF010065030D04016E037C038A039803CA
:10525200120435010002007E1480800198031204BA
:1052620041010100008114010101980312044D0162
:10527200020300C41D000001000000000000000045
:0E528200C11AFD1B701AA11A421A5C1A4E1AAC
:00000001FF
